:100000000C94AC040C94F3040C94F3040C94F304DB
:100010000C94F3040C94F3040C94F3040C94F30484
:100020000C94F3040C94F3040C94771F0C944A2062
:100030000C9484160C94F3040C94F3040C94F304C1
:100040000C94F3040C94F3040C94F3040C94F30454
:100050000C94F3040C94E5160C94F3040C94F30440
:100060000C94F3040C94F3040C94F3040C94F30434
:100070000C94F3040C94F3040C94F3040C94F30424
:100080000C94F3040C94F3040C94F3040C94F30414
:100090000C94F3040C94F3040C94F3040C94F30404
:1000A0000C94F3040C94F3040C94F304290014004E
:1000B0001A000800150017001C0018000C001200A0
:1000C00013002F0030002A002B0004001600070048
:1000D00009000A000B000D000E000F003300340071
:1000E00028000000E1001D001B00060019000500AB
:1000F00005001100100036003700380052000000E3
:1001000000000000E000015100002C002C00000065
:10011000E600E3000251500051004F0001001E00B4
:100120001F002000210022002300240025002600BB
:1001300027002D002E00010039003A003B003C0052
:100140003D003E003F0040004100420043000100EE
:1001500031000000010001004400450001000100E1
:100160000100010001000100010001004B0000003E
:10017000000000000100010000000100010000007B
:100180000100010001004A004E004D000100010085
:100190000100010001000100010001000100010057
:1001A0000100010001000100010001000100010047
:1001B0000100010001000100010001000100010037
:1001C0000100000001000100010001000100010028
:1001D0000100010001000100010001000100000018
:1001E000000000000100010000000100010000000B
:1001F00001000100010001000100010001000100F7
:1002000001000100010001000100010001000100E6
:1002100001000100010001000100010001000100D6
:1002200001000100010001000100010001000100C6
:1002300001000000010001000100010001000100B7
:1002400001000100010001000100010001000000A7
:10025000000000000100010000000100010000009A
:100260000100010001000100010001000100010086
:100270000100010001000100010001000100010076
:100280000100010001000100010001000100010066
:100290000100010001000100010001000100010056
:1002A0000100000001000100010001000100010047
:1002B0000100010001000100010001000100000037
:1002C000000000000100010000000100010000002A
:1002D0000100010001000100010001000100010016
:1002E0000100010001000100010001000100010006
:1002F00001000100010001000100010001000100F6
:1003000001000100010001000100010001000100E5
:1003100001000000010001000100010001000100D6
:1003200001000100010001000100010001000000C6
:1003300000000000010001000000010001000000B9
:1003400001000100010001000100010001000100A5
:100350000100010001000100010001000100010095
:100360000100010001000100010001000100010085
:100370000100010001000100010001000100010075
:100380000100000001000100010001000100010066
:100390000100010001000100010001000100000056
:1003A0000000000001000100000001000100000049
:1003B0000100010001000100010001000100010035
:1003C0000100010001000100010001000100010025
:1003D0000100010001000100010001000100010015
:1003E0000100010001000100010001000100010005
:1003F00001000000010001000100010001000100F6
:1004000001000100010001000100010001000000E5
:1004100000000000010001000000010001000000D8
:1004200001000100010001000100010001000100C4
:1004300001000100010001000100010001000100B4
:1004400001000100010001000100010001000100A4
:100450000100010001000100010001000100010094
:100460000100000001000100010001000100010085
:100470000100010001000100010001000100000075
:100480000000000001000100000001000100000068
:100490000100010001000100010001000100010054
:1004A0000100010001000100010001000100010044
:1004B0000100010001000100010001000100010034
:1004C0000100010001000100010001000100010024
:1004D0000100000001000100010001000100010015
:1004E0000100010001000100010001000100000005
:1004F00000000000010001000000010001000000F8
:1005000001000100010001000100010001000100E3
:1005100001000100010001000100010001000100D3
:1005200001000100010001000100010001000100C3
:1005300001000100010001000100010001000100B3
:1005400001000000010001000100010001000100A4
:100550000100010001000100010001000100000094
:100560000000000001000100000001000100000087
:100570000100010001000100010001000100010073
:100580000100010001000100010001000100010063
:100590000100010001000100010001000100010053
:1005A0000100010001000100010001000100010043
:1005B0000100000001000100010001000100010034
:1005C0000100010001000100010001000100000024
:1005D0000000000001000100000001000100000017
:1005E0000100010001000100010001000100010003
:1005F00001000100010001000100010001000100F3
:1006000001000100010001000100010001000100E2
:1006100001000100010001000100010001000100D2
:1006200001000000010001000100010001000100C3
:1006300001000100010001000100010001000000B3
:1006400000000000010001000000010001000000A6
:100650000100010001000100010001000100010092
:100660000100010001000100010001000100010082
:100670000100010001000100010001000100010072
:100680000100010001000100010001000100010062
:100690000100000001000100010001000100010053
:1006A0000100010001000100010001000100000043
:1006B0000000000001000100000001000100000036
:1006C0000100010001000100010001000100010022
:1006D0000100010001000100010001000100010012
:1006E0000100010001000100010001000100010002
:1006F00001000100010001000100010001000100F2
:1007000001000000010001000100010001000100E2
:1007100001000100010001000100010001000000D2
:1007200000000000010001000000010001000000C5
:1007300001000100010001000100010001000100B1
:1007400001000100010001000100010001000100A1
:100750000100010001000100010001000100010091
:100760000100010001000100010001000100010081
:100770000100000001000100010001000100010072
:100780000100010001000100010001000100000062
:100790000000000001000100000001000100000055
:1007A00001000100010001000100010012036B00C3
:1007B0006500790062006F00610072006400000053
:1007C000160371006D006B006200750069006C001B
:1007D00064006500720000000403090409026D0052
:1007E000040100A0FA09040000010301010009212D
:1007F000110100012240000705810308000A0904D5
:1008000001000103010200092111010001224D0034
:100810000705820308000A09040200010300000022
:100820000921110100012236000705830308000A8F
:100830000904030001030000000921110100012245
:100840003900070584032000011201100100000097
:1008500008EDFE606001000102000105010906A12A
:1008600001050719E029E7150025019508750181A3
:100870000205081901290595057501910295017573
:100880000391010507190029F71500250195F87551
:10089000018102C005010980A1018502160100261F
:1008A00003001A81002A8300751095018100C0059C
:1008B0000C0901A1018503160100269C021A010002
:1008C0002A9C02751095018100C005010902A10151
:1008D0000901A10005091901290515002501950542
:1008E0007501810295017503810105010930093106
:1008F0001581257F95027508810609381581257FA8
:10090000950175088106050C0A38021581257F9529
:100910000175088106C0C005010906A10105071976
:10092000E029E715002501950875018102950175FB
:1009300008810105081901290595057501910295A0
:1009400001750391010507190029FF150026FF0015
:10095000950675088100C00011241FBECFEFDAE0B4
:10096000DEBFCDBF04B603FE27C080913702909151
:100970003802A0913902B0913A028730904BA740DB
:10098000B04BD1F410923702109238021092390213
:1009900010923A0214BE84B7877F84BF0FB6F894D2
:1009A000A89580916000886180936000109260003B
:1009B0000FBEE0E0F8E3099511E0A0E0B1E0EEE65B
:1009C000F7E402C005900D92AA33B107D9F722E0EF
:1009D000AAE3B1E001C01D92A733B207E1F70E947C
:1009E000CD1C0C9489230C94000090E080E00895C5
:1009F0000895089581E00895089581E008950C9484
:100A0000FA040E94D50E2FEF84E39CE02150804031
:100A10009040E1F700C000000C940817EF92FF929D
:100A20000F931F93CF93DF938C01FC01E080F18043
:100A300080916E01811140C082818823C1F1C7017C
:100A40000E945A14C82F682FC7010E940314B701CF
:100A50008C2F0E944606EC01B8010E94FF048823F7
:100A600009F44BC0B801CE010E944F08882309F455
:100A700044C0C531F0E7DF0720F5C23080E7D80772
:100A800008F04DC0C115E0E7DE0791F1C130D04755
:100A9000E1F181E080933C0180933D01C801DF9149
:100AA000CF911F910F91FF90EF900C94FD04C7011F
:100AB0000E943114C82FCBCFC7010E945A14B7012E
:100AC000C8CFCC3380E7D80709F49BC0CD33D047DB
:100AD00001F7F8018281882309F4BAC010923D0120
:100AE0000E94B41690933B0180933A0180E296C035
:100AF000F801828181110E94010580E0DF91CF9190
:100B00001F910F91FF90EF900895F8018281882343
:100B1000A1F38091F70181608093F701EECFF80196
:100B20008281882309F4BACF0E941516811102C070
:100B30000E94FB150E94321690E090932902809348
:100B40002802FE01E350F047809128028160E231E3
:100B5000F10538F4E557FC4D0C94392380912802B7
:100B6000826080932802809128020E9436160E949B
:100B7000D50EC3CF809128028460F3CF80912802E4
:100B80008860EFCF809128028061EBCF80912802AE
:100B90008062E7CF809128028064E3CF80912802B1
:100BA0008068DFCF809128028C60DBCF80912802A3
:100BB0008E7FD7CF809128028D7FD3CF809128025E
:100BC0008B7FCFCF80912802877FCBCF8091280267
:100BD0008F7EC7CF809128028F7DC3CF809128025E
:100BE0008F7BBFCF809128028F77BBCF8091280267
:100BF000837FB7CF90912802892F97FB87F9805880
:100C0000B0CFF8018281882361F010923C010E94EC
:100C1000B41690933B0180933A0182E00E943A0C13
:100C20006CCF80913C0181110FC080913A0190916D
:100C30003B010E94C016883C910530F486E20E9478
:100C40000F0B86E20E94EB0B82E00E94410C55CF15
:100C500080913D0181110FC080913A0190913B013B
:100C60000E94C016883C910530F487E20E940F0B69
:100C700087E20E94EB0B80E2E8CF0C949E080C9474
:100C8000A0080C94FC040C9441060895972F70E082
:100C90002EE0929F600D711D1124FB0198E3899F46
:100CA000E00DF11D1124EE0FFF1FE455FF4F85915C
:100CB00094910895FC01EE0FFF1FE455F84F8591C4
:100CC000949108950E9446060E94D3079C018115C5
:100CD00040E4940708F097C0211580E3380708F036
:100CE000FAC0203E310508F074C0203C310508F000
:100CF000E5C0283A310588F4253A310508F0E2C00C
:100D00002130310509F477C0C9010497813A910572
:100D100008F471C030E020E06EC0C901885A910922
:100D20004597C0F7283A310509F4FEC0293A310544
:100D300009F4FDC02A3A310509F4FCC02B3A31050B
:100D400009F4FBC02C3A310509F4FAC02B3B3105FC
:100D500009F4F9C02C3B310509F4F8C02D3A3105EE
:100D600009F4F7C0203B310509F4F6C02E3A3105ED
:100D700009F4F5C02F3A310509F4F4C0213B3105DF
:100D800009F4F3C0223B310509F4F2C0233B3105DD
:100D900009F4F1C0243B310509F4F0C0253B3105CD
:100DA00009F4EFC0263B310509F4EEC0273B3105BD
:100DB00009F4EDC0283B310509F4ECC0293B3105AD
:100DC00009F4EBC02A3B310509F4EAC020E034E421
:100DD00012C0211590E2390780F42F3F310509F048
:100DE00050F4283E310538F0C901805F9109306523
:100DF000409708F08FCFC9010895C9019F700E94E4
:100E00005A069C01F8CF8115944508F041C0211580
:100E100083E5380708F06AC0211592E5390738F5EF
:100E2000211541E5340708F05CC0211580E538073D
:100E300008F454C0C90134E0969587953A95E1F7D6
:100E40008370422F46954695437090E2499FA001DA
:100E50001124582B822F837021E030E002C0220F32
:100E6000331F8A95E2F7242B352B3C68C4CFC90188
:100E70008370992741E050E002C0440F551F8A95C6
:100E8000E2F72695269580E2289F90011124EBCF6A
:100E9000211596E5390748F4922F88272115354505
:100EA000C8F59C01246F306AA6CFC90190563F70E7
:100EB0008115904108F02ECF30629DCFC901805C32
:100EC00091099DCF253A310549F1263A310549F579
:100ED00022E830E490CF3327306C8DCF3F70306AFA
:100EE0008ACF322F2227216F306A85CFC9018370C4
:100EF000992741E050E002C0440F551F8A95E2F760
:100F00002695269580E2289F90011124242B352BCD
:100F10003A6871CF88279F719C01CECF21E830E4D9
:100F20006ACF23E830E467CF22EE34E464CF29EEC1
:100F300034E461CF2AEE34E45ECF25EB34E45BCFBA
:100F400026EB34E458CF23EB34E455CF24EB34E4E0
:100F500052CF27EB34E44FCF2CEC34E44CCF2DECC4
:100F600034E449CF23E835E446CF2AE835E443CFDB
:100F700022E935E440CF24E935E43DCF21E236E4EF
:100F80003ACF23E236E437CF24E236E434CF25E209
:100F900036E431CF26E236E42ECF27E236E42BCFFB
:100FA0002AE236E428CF803E910581F1C8F48133EE
:100FB000910509F462C048F48932910509F456C0DC
:100FC0008A32910509F460C0089589339105B9F01A
:100FD00082389105A1F08533910509F440C0089548
:100FE000863E910561F138F4823E9105B1F0833E71
:100FF0009105E1F00895873E910551F10895209102
:1010000028022370D9F080EE90E008952091280204
:1010100020FF14C089E390E008952091280222FF68
:101020000DC024FD09C083EE90E0089520912802B0
:1010300022FD31C024FF02C090E080E0089520919D
:10104000280223FFFBCF24FDF7CF87EE90E0089521
:101050002091280223FFEECF86EE90E008952091A4
:10106000280225FFEBCF89E290E008952091280225
:1010700025FFE4CF85E390E008952091280226FF24
:10108000DDCF8AE290E008952091280226FFD6CF96
:1010900081E390E0089582EE90E0089508950F9323
:1010A0001F93CF938C01FB018281811106C0C1E0A7
:1010B0008C2FCF911F910F910895C0914B01C111B9
:1010C00025C00531104799F70E944E0881E08093B2
:1010D0004B010E94B41690934A01809349011092EB
:1010E0003E011092400110923F0110924201109275
:1010F0004101109244011092430110924601109256
:1011000045011092480110924701D2CF80914901C8
:1011100090914A010E94C016883C910540F680914A
:101120003E01E82FF0E0EE0FFF1FE15CFE4F118360
:1011300000838F5F80933E01C0E0BACF0C94F80427
:101140000C94F904CF93DF9385B7806885BF85B78A
:10115000806885BFA1E2B1E045E251E0C1E0D0E0A6
:101160008D91E82FE295EF70F0E061A18F709E0104
:1011700001C0220F8A95EAF7922F9095962391A3AA
:1011800082A1822B82A34A175B0751F7A3E1B1E04A
:1011900041E251E0C1E0D0E08D91E82FE295EF709F
:1011A000F0E061A18F709E0101C0220F8A95EAF7DD
:1011B000922F9095962391A382A1822B82A34A1706
:1011C0005B0751F7109255011092540110924D0196
:1011D00010924C01109257011092560110924F013B
:1011E00010924E0110925901109258011092510123
:1011F0001092500110925B0110925A01109253010B
:1012000010925201DF91CF910C943D064F925F9264
:101210007F928F929F92AF92BF92CF92DF92EF9286
:10122000FF920F931F93CF93DF939CE4492E91E09D
:10123000592E21E2E22E21E0F22E01E010E0992465
:101240009394E201A990B9902E01DE011E921E92A4
:10125000F70181917F01E82FE295EF70F0E091A115
:101260008F70980101C0220F8A95EAF7892F822B8F
:1012700081A382A1822E8094882182A380EA8A950C
:10128000F1F783E1C82E81E0D82E90E080E0E601FE
:1012900079916E01472F42954F7050E0EA0178A096
:1012A0004D915C9111977F70E80102C0CC0FDD1F5A
:1012B0007A95E2F7BE01672109F06AC0B801082EED
:1012C00002C0660F771F0A94E2F7462B572B119640
:1012D0005C934E9301968E309105C9F681A18822C8
:1012E00081A282A1282B22A38D919C91A816B906D8
:1012F00041F090925C010E94B41690935E0180933D
:101300005D01D4E54D16D1E05D0609F09ACF8091DC
:101310005C01882351F180915D0190915E010E94F2
:10132000C016069710F180914C0190914D01909359
:1013300055018093540180914E0190914F019093FB
:1013400057018093560180915001909151019093E3
:1013500059018093580180915201909153019093CB
:101360005B0180935A0110925C010E943F0681E06C
:10137000DF91CF911F910F91FF90EF90DF90CF9071
:10138000BF90AF909F908F907F905F904F90089507
:1013900070E060E09ACFE82FF0E0EE0FFF1FEC5A0C
:1013A000FE4F808191810895089590936401809308
:1013B00063010895E0916301F0916401309721F099
:1013C0000190F081E02D099480E00895E09163019F
:1013D000F0916401309721F00280F381E02D0994AF
:1013E0000895E0916301F0916401309721F0048049
:1013F000F581E02D099408952091610130916201F9
:101400002817390771F09093620180936101E09190
:101410006301F0916401309721F00680F781E02D9F
:101420000994089520915F013091600128173907D0
:1014300071F09093600180935F01E0916301F091FE
:101440006401309721F00084F185E02D099408951E
:1014500008950C94280A0E94AB160E94A2080C94CE
:1014600075175F926F927F928F929F92AF92BF9209
:10147000CF92DF92EF92FF920F931F93CF93DF9360
:1014800000D000D00F92CDB7DEB70E94060996E6D5
:10149000A92E91E0B92E10E000E088248394912CCD
:1014A000502E802F0E94CB097C01F501C190D19074
:1014B0005F01C816D90609F45DC08091F70181FD6E
:1014C0000E94D40990E080E0CE24DF243401082E6D
:1014D00002C0660C771C0A94E2F796012621372198
:1014E000232B09F442C089835A82E620F72081E049
:1014F000EF2809F480E08B830E94B4168160782F76
:101500009D838C8349815A816B818D810E94E60A7B
:10151000000F111FF801EA59FE4F80819181682662
:101520007926718260820E94221A0E94DA099091C3
:1015300065018917B1F10E94DA09809365010F9066
:101540000F900F900F900F90DF91CF911F910F91FF
:10155000FF90EF90DF90CF90BF90AF909F908F90D3
:101560007F906F905F900C94430601968E309105AA
:1015700009F0ACCF0F5F1F4F0430110509F090CF79
:101580008FEF89838A831B820E94B4168160782F33
:101590009D838C8349815A816B818D810E94E60AEB
:1015A000C2CF0F900F900F900F900F90DF91CF91BF
:1015B0001F910F91FF90EF90DF90CF90BF90AF9071
:1015C0009F908F907F906F905F900895CF93DF935F
:1015D000CDB7DEB72B970FB6F894DEBF0FBECDBFE9
:1015E0004F83588769877A878B871E8285E0FE0143
:1015F0003796DE01119601900D928A95E1F74981A7
:101600005A816B817C818D819E812B960FB6F894D7
:10161000DEBF0FBECDBFDF91CF910C945D1188234B
:1016200009F4D8C0823871F40E94DA0981FDD2C071
:1016300089E30E9402150E94CC1589E30E943F15A0
:101640000C94CC15833859F40E94DA0980FDC2C08D
:1016500083E50E9402150E94CC1583E5EFCF843804
:1016600059F40E94DA0982FDB5C087E40E94021590
:101670000E94CC1587E4E2CF9CEF980F913A18F4C2
:101680000E940215DDCF90E2980F983050F48770D9
:1016900091E001C0990F8A95EAF7892F0E9483157E
:1016A000CFCF9BE5980F933070F4853A31F0863AAE
:1016B00039F083E890E00C94FC0981E890E0FBCFDE
:1016C00082E890E0F8CF98E5980F953108F082C055
:1016D000883A09F440C0893A09F440C08A3A09F4CA
:1016E00040C08B3A09F440C08C3A09F440C08B3BAF
:1016F00009F440C08C3B09F440C08D3A09F440C065
:10170000803B09F440C08E3A09F440C08F3A09F496
:1017100040C0813B09F440C0823B09F440C0833B98
:1017200009F440C0843B09F440C0853B09F440C043
:10173000863B09F440C0873B09F440C0883B09F46C
:1017400040C0893B09F440C08A3B09F440C090E0A6
:1017500080E00C94120A82EE90E0FBCF89EE90E0DC
:10176000F8CF8AEE90E0F5CF85EB90E0F2CF86EBF4
:1017700090E0EFCF83EB90E0ECCF84EB90E0E9CF0B
:1017800087EB90E0E6CF8CEC90E0E3CF8DEC90E03F
:10179000E0CF83E891E0DDCF8AE891E0DACF82E91B
:1017A00091E0D7CF84E991E0D4CF81E292E0D1CF2C
:1017B00083E292E0CECF84E292E0CBCF85E292E06A
:1017C000C8CF86E292E0C5CF87E292E0C2CF8AE23C
:1017D00092E0BFCF0895882309F44BC0823871F49A
:1017E0000E94DA0981FF45C089E30E9402150E9428
:1017F000CC1589E30E943F150C94CC15833859F41D
:101800000E94DA0980FF35C083E50E9402150E941C
:10181000CC1583E5EFCF843859F40E94DA0982FFB2
:1018200028C087E40E9402150E94CC1587E4E2CF0D
:101830009CEF980F913AF0F290E2980F983050F4A4
:10184000877091E001C0990F8A95EAF7892F0E946D
:101850008915D2CF9BE5980F933020F490E080E07B
:101860000C94FC09885A853120F490E080E00C94B7
:10187000120A0895882321F00E9483150C94CC1538
:101880000895882321F00E9489150C94CC150895A1
:101890008F929F92AF92BF92DF92EF92FF920F933F
:1018A0001F93CF93DF9300D000D00F92CDB7DEB758
:1018B0007C016D837983FC01058102950F70128193
:1018C00011110E94A2150E94FB14D82E882371F0DA
:1018D0001123A1F08D81805E883080F082E00E942B
:1018E000E5140E94FB1491E0D82ED926E981E295F7
:1018F000EF70F0E0E356FC4D0C943923D12CF6CF79
:1019000009810F70F981F07F11F00295007F11239A
:10191000B1F0002361F08D81805E883018F02D8158
:10192000211109C0802F0E9483150E94CC158D8142
:101930000E940F0B15C0802F0E949415F6CF8D8149
:101940000E94EB0B002361F08D81805E883018F0DF
:101950003D81311129C0802F0E9489150E94CC152C
:10196000DD2009F4D3C10E94D81480FDCFC1F70156
:1019700012820E94D2140E941B13C7010E94970E6C
:101980000E94D2140F900F900F900F900F90DF9144
:10199000CF911F910F91FF90EF90DF90BF90AF908C
:1019A0009F908F900C943D13802F0E949A15D6CF54
:1019B00049814F70B42E5981507F503219F0B29442
:1019C00080EFB8228D81882369F0813029F11123BD
:1019D00069F1002359F0F701858180FFA8CF8F704E
:1019E000858304C0112361F0011104C08B2D0E9476
:1019F0003A0CB6CF8B2D0130D1F70E94B615B0CF7F
:101A0000011106C00E94B9158B2D0E94410CA8CF70
:101A1000013009F4A5CFF6CF112321F0063008F0EC
:101A20009FCFE4CF053008F09BCFEECF002361F3CA
:101A30008D810E94EB0B94CF89818695869583706A
:101A400069F0813009F08CCF8D81998193701111EB
:101A500002C090E080E00E94120A82CF8D819981BD
:101A60009370111102C090E080E00E94FC0978CFD1
:101A70008D81112329F00E9430190E94171A70CF0E
:101A80000E949819FACF8981837009F05FC0111103
:101A900067CF2D81229526952770220F220F8D81E9
:101AA0008F7090E0B0E0A0E04C015D01022E04C018
:101AB000880C991CAA1CBB1C0A94D2F7FD8160E01B
:101AC00070E0CB01F4FF0FC06FE070E080E090E0C9
:101AD00004C0660F771F881F991F2A95D2F760955B
:101AE00070958095909529812695269523702D8354
:101AF0002230B1F0233019F19B01AC01282939299A
:101B00004A295B2929833A834B835C833D81698120
:101B10007A818B819C813130B1F00E94A81220CF54
:101B20009B01AC01282939294A295B2929833A8359
:101B30004B835C83CA01B9010E94D21211CF0E946B
:101B4000A812C501B4010E947E120ACF8695112306
:101B500011F089818170882309F402CF2D812295AB
:101B600026952770220F220F8D818F7090E0B0E0B4
:101B7000A0E04C015D01022E04C0880C991CAA1C37
:101B8000BB1C0A94D2F73D8160E070E0CB0134FFCA
:101B90000FC06FE070E080E090E004C0660F771F38
:101BA000881F991F2A95D2F760957095809590951A
:101BB00049814695469543704D834230B1F043309C
:101BC00019F19B01AC01282939294A295B2929836C
:101BD0003A834B835C833D8169817A818B819C81CF
:101BE0003130B1F00E94AE13BBCE9B01AC0128296D
:101BF00039294A295B2929833A834B835C83CA01AB
:101C0000B9010E94D813ACCE0E94AE13C501B40135
:101C10000E948413A5CE3D81323F09F447C080F471
:101C2000303F79F1313FD9F1832F805E8031D0F0A0
:101C3000112309F456C001117ACE89818F7133C006
:101C40004D81433FD1F1443F99F7112309F43FC03F
:101C500089818F7189830E941B1363E089810E94AF
:101C6000DC147ECE5D815F705D8389818F7111236D
:101C700021F00E941B138D81BACE0E943D138D81ED
:101C8000C4CE112341F0053008F06ACE89818F71EE
:101C90000E94621365CE063008F062CEF7CF8981CC
:101CA0008F71112339F00E941B135ACE89818F71D5
:101CB0001123C9F30E943D1353CE112329F08981CA
:101CC0008F710E9406134CCE0E94FC1249CE81E017
:101CD0000E94E514023008F443CE82E00E94E5142D
:101CE0003FCE0111A5CE89818F71E4CF49814F701C
:101CF0006D81C7010E94F5040E94F71131CE498120
:101D00004F706D81C7010E9445062ACE0F900F903B
:101D10000F900F900F90DF91CF911F910F91FF9037
:101D2000EF90DF90BF90AF909F908F9008950F93AA
:101D30001F93CF93DF93EC018B819C81892B29F03A
:101D40008881998189238F3F29F4DF91CF911F9159
:101D50000F910895CE010E940E058823B1F368818A
:101D600079818A810E94A8148C010E9402140E9429
:101D70007312B801CE01DF91CF911F910F910C9496
:101D8000480C0E94A2150E94B3150E9475150E946E
:101D9000CC150E94081B0E94171A90E080E00E9458
:101DA000FC0990E080E00C94120A0E9491150C94BA
:101DB000C10E0E949C14282F892F82958F70903C11
:101DC00080F48A30B0F4843020F4823090F480E0E3
:101DD00008958630E1F781E0203E88F0213FB9F791
:101DE0000EC08C3011F08F3091F793FB882780F96B
:101DF000089581E0203F39F018F4203E40F708951F
:101E0000243F29F7FCCF0895CF93DF9300D000D073
:101E10000F92CDB7DEB70F900F900F900F900F90ED
:101E2000DF91CF910895CF93DF9300D000D000D001
:101E3000CDB7DEB726960FB6F894DEBF0FBECDBF86
:101E4000DF91CF9108951F93CF93DF93E0916F01BE
:101E500016E0809170018E1304C0DF91CF911F9125
:101E60000895CE2FD0E01E9FF0011124EF58FE4FB1
:101E70004081518162817381848195810E94130F19
:101E8000FE013196E770E5CF4091A1015091A2018A
:101E90006091A3017091A4018091A5019091A60188
:101EA0000C94130F1F93CF93DF938091A601807F33
:101EB000C1F48091A3018823A1F080916F01C091AA
:101EC00070016091A1017091A2014091A401509113
:101ED000A501D62FD723DA01A095B09516E0C81337
:101EE00004C0DF91CF911F91089590E041155105F5
:101EF00011F0DF3F31F401968770F1CF2A0F3B1FBD
:101F000017C0189FF001199FF00D1124EF58FE4FD4
:101F100021812713F0CF20812613EDCF22812111BB
:101F2000EACF238134812417350740F3241B350B76
:101F3000283C310500F72091A6012F7020612093E5
:101F4000A60126E0289FF001299FF00D1124EA58F0
:101F5000FE4F80818F708061808381EA91E00E94D2
:101F6000970EDF91CF911F910C94230F9F92AF9208
:101F7000BF92CF92DF92EF92FF920F931F93CF9376
:101F8000DF93CDB7DEB72B970FB6F894DEBF0FBE49
:101F9000CDBF8C0185E0F801DE01179601900D920E
:101FA0008A95E1F7D8014C9111965C9111971296A0
:101FB000EC9012978091A4019091A501009709F4EB
:101FC0006BC12091A1013091A201632F62236F3F69
:101FD00009F462C11396CD90DC909090A3019920F2
:101FE00009F4F8C0C816D90608F43FC0F601E81B8A
:101FF000F90BCF01FF24F394883C910508F0F12CF4
:1020000081EAA82E81E0B82E8091A601982F907FBA
:10201000FF2009F4B7C0911180C0FE2C35132AC0EF
:10202000241328C0E11026C08F7080618093A60120
:102030000E94440FC5010E94970E8091A601D8010D
:1020400015968C938F2D2B960FB6F894DEBF0FBE8E
:10205000CDBFDF91CF911F910F91FF90EF90DF9057
:10206000CF90BF90AF909F900895809590958C0DE4
:102070009D1DC0CFCD2829F0842F85238F3F09F0E7
:1020800019C180E0B82FB170DB2EE0916F01209173
:10209000700136E080FD1CC0EE20A1F28091A60107
:1020A00081608093A601F12CCDCF8E2F90E03E9FD2
:1020B000F0011124EF58FE4F6181651306C0608165
:1020C000641303C062816E11E7CFFC013196E770A3
:1020D000E213EBCF4F8358878F8198850E949C1421
:1020E000292F22952F70903260F0225F2F702230BE
:1020F00078F49F7051F0F8019581907F31F4D12CE4
:102100000AC09F7011F08823D1F3805E8830B8F345
:10211000C8010E94970EFD2C95CF351306C02413DD
:1021200004C0D801EE2009F47BC04F8358878F810B
:1021300098850E94D90E882309F4B8C0EE2009F4CE
:10214000B5C08091A601803270F02091A10130913C
:10215000A2013A8329831B82DD82CC828E83CE0149
:1021600001960E94970E86E0F801A1EAB1E0019085
:102170000D928A95E1F70E94520F0E94440FFF24AE
:10218000F39460CF911113C07C2DDB86CA866E2D2F
:102190008B850E94040F81EA91E00E94970E86E0F1
:1021A000F50111928A95E9F70E94440F4BCF351340
:1021B000BCCF2413BACFE110B8CFD80115968C93B9
:1021C000C8010E94970E86E0F50111928A95E9F701
:1021D000F92C38CFC816D90688F1B601681B790BDF
:1021E000CB01F12C883C910508F047C0FE2CEE2075
:1021F00009F45CC0351330C024132EC08091A601B1
:1022000080FD21C0982F907FF1F0D80115968C9316
:102210001597903F39F0982F907F905F8F70892BA2
:1022200015968C93C8010E94970E86E0F801A1EAEA
:10223000B1E001900D928A95E1F7B6CF8095909527
:102240008C0D9D1DCECF86E0F801A1EAB1E0019092
:102250000D928A95E1F7F6CE4F8358878F81988546
:102260000E94D90E81117FCF8091A6018160809359
:10227000A601C8010E94970EE5CE7C2DDB86CA869A
:102280006E2D8B850E94040F86E0E1EAF1E0DF010C
:102290001D928A95E9F788CFEE2041F04F83588749
:1022A0008F8198850E94D90E81115DCFC8010E944F
:1022B000970E65CF81E08E25E5CE1F93CF93DF93F8
:1022C000CDB7DEB72C970FB6F894DEBF0FBECDBFEB
:1022D0004F83588769877A878B879C87CE010796BB
:1022E0000E94B60F882369F08A859B85892B39F077
:1022F0004F815885842F85238F3F09F071C016E0E8
:102300005FC086E0FE013796DE01119601900D92C6
:102310008A95E1F78A859B85892B89F388859F813A
:1023200089238F3F61F32091700130E0C90101964C
:102330008770992740916F014817190671F40E9420
:10234000D50E1092700110926F0186E0E1EAF1E083
:10235000DF011D928A95E9F7D2CF96E0929FD001D6
:10236000939FB00D1124AF58BE4FFE0131960190DE
:102370000D929A95E1F7809370010E94230FBFCFD1
:10238000819FC00111248F589E4F0E94B60F882351
:10239000E9F0E0916F011E9FF0011124EF58FE4F0C
:1023A0004081518162817381848195810E94130FE4
:1023B00080916F0190E001968770992780936F015B
:1023C00080916F01909170018913DACF2C960FB62E
:1023D000F894DEBF0FBECDBFDF91CF911F9108955E
:1023E00069857A858B859C850E94130F88CFEF9233
:1023F000FF920F931F93CF93DF938C01892B89F06A
:10240000F12CEE24E394E8012196F80184918437BD
:1024100009F457C0A0F4823009F43EC048F481307A
:10242000D1F0DF91CF911F910F91FF90EF90089520
:102430009CEF980F9037A8F70E940F0B0AC08537C2
:1024400009F44CC09CE7980F903758F78F770E949B
:10245000EB0B8E0116C00E5F1F4FFE01849190E2C0
:10246000980F983060F48770FE2D01C0FF0F8A9599
:10247000EAF78F2F0E94A5150E94CC1502C00E947A
:102480000F0B8F2D815008F4BECFEFE9FFE031979D
:10249000F1F700C00000F6CF0E5F1F4FFE018491E0
:1024A00090E2980F983050F48770FE2D01C0FF0F16
:1024B0008A95EAF78F2F0E94AB15DECF0E94EB0BB7
:1024C000E0CF0E5F1F4FFE01C491C150D0F28FE9E3
:1024D0009FE00197F1F700C00000F7CF0E5F1F4F9C
:1024E000FE01F490CECF08956093CE017093CF019A
:1024F0008093D0019093D1010C94C10ECF93DF93C0
:1025000000D000D0CDB7DEB769837A838B839C83FC
:102510008091CE019091CF01A091D001B091D101D5
:1025200029813A814B815C81822B932BA42BB52B83
:102530008093CE019093CF01A093D001B093D101AD
:102540000F900F900F900F90DF91CF910C94C10ED0
:10255000CF93DF9300D000D0CDB7DEB769837A8305
:102560008B839C838091CE019091CF01A091D0016B
:10257000B091D10129813A814B815C8182239323DF
:10258000A423B5238093CE019093CF01A093D001D3
:10259000B093D1010F900F900F900F90DF91CF91DA
:1025A0000C94C10ECF93DF9300D000D0CDB7DEB72F
:1025B00069837A838B839C838091CE019091CF0134
:1025C000A091D001B091D10129813A814B815C81E8
:1025D00082279327A427B5278093CE019093CF011C
:1025E000A093D001B093D1010F900F900F900F9056
:1025F000DF91CF910C94C10E1092CA011092CB01C1
:102600001092CC011092CD010C94C10E41E050E02B
:1026100060E070E004C0440F551F661F771F8A9565
:10262000D2F74093CA015093CB016093CC017093D1
:10263000CD010C94C10E282F81E090E0A0E0B0E025
:1026400004C0880F991FAA1FBB1F2A95D2F740917B
:10265000CA015091CB016091CC017091CD01842BC6
:10266000952BA62BB72B8093CA019093CB01A093F7
:10267000CC01B093CD010C94C10E41E050E060E07C
:1026800070E004C0440F551F661F771F8A95D2F76C
:1026900040955095609570958091CA019091CB01BD
:1026A000A091CC01B091CD0184239523A623B7231B
:1026B0008093CA019093CB01A093CC01B093CD013C
:1026C0000C94C10E282F81E090E0A0E0B0E004C09F
:1026D000880F991FAA1FBB1F2A95D2F74091CA01E4
:1026E0005091CB016091CC017091CD018427952749
:1026F000A627B7278093CA019093CB01A093CC0162
:10270000B093CD010C94C10ECF93DF9300D000D0D5
:10271000CDB7DEB769837A838B839C838091CA01AE
:102720009091CB01A091CC01B091CD0129813A814A
:102730004B815C81822B932BA42BB52B8093CA01F8
:102740009093CB01A093CC01B093CD010F900F904B
:102750000F900F90DF91CF910C94C10ECF93DF9328
:1027600000D000D0CDB7DEB769837A838B839C839A
:102770008091CA019091CB01A091CC01B091CD0183
:1027800029813A814B815C8182239323A423B52341
:102790008093CA019093CB01A093CC01B093CD015B
:1027A0000F900F900F900F90DF91CF910C94C10E6E
:1027B000CF93DF9300D000D0CDB7DEB769837A83A3
:1027C0008B839C838091CA019091CB01A091CC0115
:1027D000B091CD0129813A814B815C818227932779
:1027E000A427B5278093CA019093CB01A093CC0175
:1027F000B093CD010F900F900F900F90DF91CF917C
:102800000C94C10E0895E82F2EE0929FE00D112444
:102810008E2F877041E001C0440F8A95EAF7E69554
:10282000E695E69585E0E89FF0011124E955FE4F15
:1028300030E020E070E05191DF011197CB01022ED2
:1028400002C0969587950A94E2F781708195852755
:10285000842385278C932F5F3F4F2530310559F70F
:102860000895E82F2EE0929FE00D11249E2F97707F
:10287000E695E695E69585E0E89FF0011124E95597
:10288000FE4F50E040E080E0219130E0092E02C090
:10289000369527950A94E2F721703327042E01C05C
:1028A000220F0A94EAF7822B4F5F5F4F45305105A4
:1028B00059F70895BF92CF92DF92EF92FF920F9354
:1028C0001F93CF93DF938C01C090CA01D090CB01AE
:1028D000E090CC01F090CD018091CE019091CF019C
:1028E000A091D001B091D101C82AD92AEA2AFB2AA5
:1028F000CFE1D0E0BC2ED701C6010C2E04C0B695A6
:10290000A795979587950A94D2F780FD0EC02197D9
:1029100088F7B12C8B2DDF91CF911F910F91FF90F4
:10292000EF90DF90CF90BF900895B8018C2F0E9458
:102930006206019761F3EECFCF93DF93D82FC92FB3
:102940000E945A146D2F7C2FDF91CF910C94620658
:102950001F93CF93DF93162FD72F90916E0199235A
:1029600039F0862F972FDF91CF911F910C949C14F3
:10297000882391F0862F972F0E945A14C82F682F12
:10298000812F9D2F0E940314612F7D2F8C2FDF91AB
:10299000CF911F910C946206862F972F0E943114BD
:1029A000C82FF2CF8091D2018595859585950895A0
:1029B0008091D2018770089598E0899F9001112439
:1029C000622B6093D2010C941B139091D2018095DD
:1029D00089238093D201282F277061F4282F082E95
:1029E000000C330B9217130629F085958595859574
:1029F0000C943D1308959091D201977081E009F4F1
:102A000080E00895909112019923E1F090912802BD
:102A100097FF18C0E82FE695E695E695EF3139F176
:102A20002091000130910101E20FF32FF11D877019
:102A300021E030E001C0220F8A95EAF78181822BE4
:102A4000818308952091000130910101F9013296AE
:102A50009FEF40E05191851751F09F3F19F45111BC
:102A600001C0942F4F5F4E31A9F79F3F09F408959D
:102A7000290F311D97FD3A95F901828308959091B0
:102A80001201992301F19091280297FF1CC0E82FB1
:102A9000E695E695E695EF3139F120910001309108
:102AA0000101E20FF32FF11D877021E030E0A90151
:102AB00002C0440F551F8A95E2F7CA0180959181A3
:102AC0008923818308952091000130910101F9014A
:102AD0003296205E3F4F9191891303C0DF01119719
:102AE0001C92E217F307B9F7089581E090E0E091B6
:102AF0000001F0910101E80FF91F10820196803268
:102B00009105A9F708959091F601982B9093F601FD
:102B10000895982F90958091F60189238093F6016E
:102B200008951092F60108959091F501982B9093D5
:102B3000F5010895982F90958091F5018923809350
:102B4000F50108951092F50108959091F401982BE4
:102B50009093F4010895982F90958091F401892322
:102B60008093F40108951092F40108958093D301A5
:102B700008951092D3010895209100013091010130
:102B8000F9013196205E3F4F80E0919191118F5F66
:102B9000E217F307D1F70895E0910001F0910101E8
:102BA0008091F6018083E0910001F0910101808124
:102BB0009091F501892B8083E0910001F091010152
:102BC00080819091F401892B80839091D301992386
:102BD00061F0E0910001F09101018081892B8083F7
:102BE0000E94BC1581111092D30180910001909137
:102BF00001010C94E6096DEE7EEF90E080E00E940A
:102C0000732360E082E090E00E94612360E083E053
:102C100090E00E94612360E084E090E00E946123E4
:102C200060E085E090E00C94612390E080E00E94F9
:102C30005B239C0181E02D3E3E4F09F080E008952A
:102C400082E090E00C945323682F82E090E00C9493
:102C5000612383E090E00C945323682F83E090E09D
:102C60000C94612384E090E00C945323682F84E05B
:102C700090E00C94612380912E02843039F11092FF
:102C8000F80188E190E020E40FB6F894A8958093CD
:102C900060000FBE2093600080E00E94430683B76F
:102CA000817F846083BF83B7816083BF7894889578
:102CB00083B78E7F83BF0FB6F894A895809160008C
:102CC000886180936000109260000FBE089508959F
:102CD0000895CF930E9467160E9406090E94681605
:102CE000C0E08C2F0E94CB09892B31F4CF5FC43018
:102CF000C1F780E0CF91089581E0FCCF0E94D50E0E
:102D00000E94DA090C9443061F921FB61F921124E9
:102D10008F939F93AF93BF938091F801811113C05C
:102D20008091240290912502A0912602B091270261
:102D30004196A11DB11D8093240290932502A0937A
:102D40002602B0932702BF91AF919F918F911F9060
:102D50001FBE1F90189582E084BD93E095BD9AEF49
:102D600097BD80936E0008952FB7F8948091240248
:102D700090912502A0912602B09127022FBF0895BD
:102D8000CF92DF92EF92FF929C014FB7F89480911F
:102D9000240290912502A0912602B09127024FBFF4
:102DA0006C017D01EE24FF24A90170E060E0C416EF
:102DB000D506E606F70638F0821B930BFF90EF90DE
:102DC000DF90CF9008950197F7CF1F921FB61F9203
:102DD00011248F939F93AF93BF938091240290917E
:102DE0002502A0912602B09127020196A11DB11DD6
:102DF0008093240290932502A0932602B093270289
:102E0000BF91AF919F918F911F901FBE1F901895FA
:102E10000E94FC1EF8942FEF87EA91E62150804033
:102E20009040E1F700C0000087E090EBDC01809368
:102E3000370290933802A0933902B0933A0288E1A6
:102E40009CE00FB6F894A895809360000FBE909315
:102E50006000FFCFAF92BF92CF92DF92EF92FF92CE
:102E60000F931F93CF93C0E0AA24A394B12CE82E14
:102E7000F12C8C2F0E94CB096C0110E000E0C50101
:102E8000002E02C0880F991F0A94E2F78C219D2121
:102E9000892B99F0602F7C2F80E00E944606E8166F
:102EA000F90659F481E0CF911F910F91FF90EF90B7
:102EB000DF90CF90BF90AF9008950F5F1F4F0E30FF
:102EC0001105E9F6CF5FC430A1F680E0ECCFCF93D7
:102ED000C82F8CE20E942A17882321F08C2FCF91D3
:102EE0000C942A1780E0CF910895CF93DF9300D000
:102EF00000D0CDB7DEB70E941516811102C00E9426
:102F0000FB1595E6998308C00E9406098FE39CE9AA
:102F10000197F1F700C00000A981A150A983A11178
:102F2000F3CF89E20E946717811110C18AE20E94E3
:102F3000671781110E94FB1585E00E9467178111B8
:102F40000E9408170E9420168093F70187E00E94D4
:102F50006717882371F08BE10E946717882309F4B3
:102F6000D1C09091F701892F8D7F91FF826080936E
:102F7000F7018091F7010E9424160E94321690E01A
:102F8000909329028093280280EE0E94671788237D
:102F900041F090912802892F8E7F90FF816080936D
:102FA000280289E30E946717882341F09091280244
:102FB000892F8D7F91FF82608093280282EE0E948C
:102FC0006717882341F090912802892F8B7F92FF09
:102FD00084608093280286EE0E946717882341F060
:102FE00090912802892F877F93FF88608093280221
:102FF00083EE0E946717882341F090912802892F61
:103000008F7E94FF80618093280285E30E9467177A
:10301000882341F090912802892F8F7D95FF80624F
:103020008093280281E30E946717882341F09091E2
:103030002802892F8F7B96FF80648093280281E18C
:103040000E946717882341F090912802892F97FBEF
:1030500087F9805880932802809128020E943616B2
:1030600087E20E94671789838EE10E946717882391
:1030700019F0B981B260B9838FE10E946717882384
:1030800019F029812460298380E20E946717882330
:1030900019F039813860398381E20E9467178823EB
:1030A00019F049814061498382E20E9467178823B1
:1030B00019F059815062598383E20E94671788236F
:1030C00019F089818064898384E20E9467178823CC
:1030D000B1F199819068998389810E942D16398177
:1030E000232F30E050E040E029833A834B835C8318
:1030F000CA01B9010F900F900F900F90DF91CF91FF
:103100000C9474128EE00E946717882339F0909116
:10311000F701892F8B7F92FF846029CF80E10E9485
:1031200067179091F701882329F0892F877F93FFF4
:1031300088601DCF892F8E7F90FF816018CFA98175
:10314000A111CACF0E942916282FCBCF0F900F9024
:103150000F900F90DF91CF9108958091FB0180FF38
:1031600012C06091050185E0689FB001112475953A
:1031700067957595679560387105A8F561157105B6
:10318000A1F1862F089581FF09C06091050185E0B6
:10319000689FB001112475956795EDCF6091050189
:1031A00082FD0AC08091FC018823D1F09091040136
:1031B00060910501891728F085E0689FB00111240E
:1031C000DACF869FB001112485E0869F9001879F0A
:1031D000300D1124692F70E0C9010E942523CBCF47
:1031E00065E070E0CECF8FE7089581E0089580918B
:1031F000FB0180FF0CC06091030170E0759567953D
:10320000759567956115710549F1862F089581FFC0
:1032100006C06091030170E075956795F3CF6091EA
:10322000030182FD0BC09091FC019923A1F06091F4
:10323000020180910301961738F0682F70E0603822
:10324000710500F38FE70895899FC001112470E094
:103250000E942523F4CF61E070E0D7CF81E008958C
:10326000803F31F40E94AD1881958093FF0108954D
:10327000813F19F40E94AD18F8CF823F31F40E94CB
:10328000AD1881958093FE010895833F19F40E9443
:10329000AD18F8CF893F29F40E94F71880930002F7
:1032A00008958A3F21F40E94F7188195F7CF8B3F4C
:1032B00031F40E94F71881958093010208958C3FA4
:1032C00019F40E94F718F8CF843F31F48091FD0182
:1032D00081608093FD010895853F21F48091FD0177
:1032E0008260F7CF863F21F48091FD018460F1CFA9
:1032F000873F21F48091FD018860EBCF883F21F466
:103300008091FD018061E5CF8D3F31F48091FB011B
:1033100081608093FB0108958E3F21F48091FB0131
:103320008260F7CF8F3FB9F78091FB018460F1CFC6
:103330009091FE01803F41F48091FF0187FD109242
:10334000FF01992371F00895813F29F48091FF01D5
:103350001816ACF3F6CF823F81F497FFF2CF1092AC
:10336000FE018091FF0190910002892B9091010252
:10337000892B49F71092FC010895833F19F419161F
:1033800074F3DFCF893F39F4809100021816CCF630
:1033900010920002D6CF8A3F29F48091000287FF65
:1033A000D0CFF6CF8B3F39F48091010287FFC9CF90
:1033B00010920102C6CF8C3F29F4809101021816A9
:1033C000BCF3BFCF843F31F48091FD018E7F8093A9
:1033D000FD01B7CF853F21F48091FD018D7FF7CFAF
:1033E000863F21F48091FD018B7FF1CF873F21F44F
:1033F0008091FD01877FEBCF883F21F48091FD0113
:103400008F7EE5CF8D3F31F48091FB018E7F8093DD
:10341000FB0197CF8E3F21F48091FB018D7FF7CF89
:103420008F3F09F08ECF8091FB018B7FF0CF8DEF26
:1034300091E00E94F1090E94B4169093FA018093E2
:10344000F90108951F93CF93DF9300D000D000D0EF
:10345000CDB7DEB78091F9019091FA010E94C016B4
:10346000AC018091FC012091060130E0811106C081
:10347000209107019AE0299F9001112442175307D8
:1034800088F02091FE01A091FF01A9831091000214
:10349000B0910102BE8321110FC09A2F912B9B2B5B
:1034A00009F0B2C026960FB6F894DEBF0FBECDBFAE
:1034B000DF91CF911F9108958F3F19F08F5F809317
:1034C000FC01121624F40E94AD188093FE01809135
:1034D000FE0187FF05C00E94AD1881958093FE0113
:1034E0002981121624F40E94AD188093FF01809167
:1034F000FF0187FF05C00E94AD1881958093FF01F1
:103500008091FE01882309F455C03091FF013D836D
:10351000332309F44FC0282F880F330B440B550B6E
:1035200029833A834B835C83CA01B9010E942C2210
:1035300023E333E343E35FE369837A838B839C83F1
:1035400069817A818B819C810E94902269837A8330
:103550008B839C8369817A818B819C810E94F42179
:103560006093FE018D81082E000C990BAA0BBB0BFA
:1035700089839A83AB83BC83BC01CD010E942C223A
:1035800023E333E343E35FE369837A838B839C83A1
:1035900069817A818B819C810E94902269837A83E0
:1035A0008B839C8369817A818B819C810E94F42129
:1035B0006093FF01111624F40E94F7188093000213
:1035C0008091000287FF05C00E94F71881958093C3
:1035D00000029E81191624F40E94F71880930102BC
:1035E0008091010287FF05C00E94F71881958093A2
:1035F000010226960FB6F894DEBF0FBECDBFDF9155
:10360000CF911F910C94171A8F3F09F057CF68CFB5
:1036100085E0EDEFF1E0DF011D928A95E9F7109268
:10362000FC011092FB010895809122020895CF932E
:10363000DF9300D00F92CDB7DEB720912E02243059
:1036400019F523E029838A839B832093E9008FEF78
:103650009091E800815095FD06C095ED9A95F1F79F
:1036600000008111F5CF8091E80085FF0DC050E08A
:1036700040E063E070E0CE0101960E94741D8091ED
:10368000E8008E778093E8000F900F900F90DF9105
:10369000CF910895CF93DF9300D00F92CDB7DEB7CF
:1036A0009C0180912E02843031F582E0898320587C
:1036B00031093B832A8383E08093E9008FEF909167
:1036C000E800815095FD06C095ED9A95F1F7000050
:1036D0008111F5CF8091E80085FF0DC050E040E0FA
:1036E00063E070E0CE0101960E94741D8091E800B5
:1036F0008E778093E8000F900F900F90DF91CF911D
:10370000089520912E022430F1F422E02093E90064
:103710002FEF3091E800215035FD06C035ED3A9588
:10372000F1F700002111F5CF2091E80025FF0BC033
:1037300050E040E065E070E00E94741D8091E80078
:103740008E778093E8000895CF93DF93D82FC92F09
:1037500080912E028430F1F4909112019923E9F0C6
:103760009091280297FF19C08093E9008FEF909104
:10377000E800815095FD06C095E19A95F1F70000AB
:103780008111F5CF8091E80050E040E060E270E008
:1037900085FD1AC0DF91CF91089581E08093E90003
:1037A0008FEF9091E800815095FD06C095ED9A95B8
:1037B000F1F700008111F5CF8091E80085FFEACF95
:1037C00050E040E068E070E08D2F9C2F0E94741D57
:1037D0008091E8008E778093E80080E2ED2FFC2F47
:1037E000A2E0B2E001900D928A95E1F7D3CF8091EB
:1037F0002D02811109C00E94FC1E0E94591F809158
:10380000E20084608093E200089510922D020895F2
:10381000089508950C947E1642E061EC81E00E94C8
:10382000781E42E061EC82E00E94781E42E061EC8A
:1038300083E00E94781E42E261EC84E00C94781EE2
:1038400080913002893089F148F4823009F494C0C3
:10385000833009F44FC0813041F008958A3009F473
:103860007BC08B3009F461C0089580912F02813AAA
:1038700009F03FC08091E800877F8093E800809145
:10388000330290913402892B61F460E282E092E08D
:1038900070E00E94C31D8091E8008B778093E80060
:1038A000089560E090E080E0F3CF80912F028132B4
:1038B00001F58091330290913402009711F0039743
:1038C000C1F48091E800877F8093E8008091E80050
:1038D00082FF0BC08091F100809322028091E8006A
:1038E0008B778093E8000C94AC1E80912E0281119E
:1038F000EDCF089580912F02813AD9F7809133025C
:1039000090913402892BA9F78091E800877F8093FA
:10391000E8008091E80080FFFCCF80911201809345
:10392000F1008091E8008E77DCCF80912F02813208
:1039300001F78091330290913402892BD1F6809166
:10394000E800877F8093E8000E94AC1E80913102DE
:10395000809312010C94D50E80912F02813249F68A
:103960008091E800877F8093E8000E94AC1E8091E0
:10397000320280932302089580912F02813A09F048
:10398000B8CF8091E800877F8093E8008091E800BD
:1039900080FFFCCF80912302C2CF84B7877F84BF92
:1039A0000FB6F894A89580916000886180936000BC
:1039B000109260000FBE80E8809361001092610059
:1039C0000E94290A0E94FC1E0E94591F8091E20059
:1039D00084608093E20078940E94D9210E942B0A8F
:1039E00088E091E00E94D50980912E02853019F07F
:1039F0000E94310AF9CF0E943B1680912C02882345
:103A000099F30E946916882379F30E945E1DECCF1A
:103A10009C01DA01892F992783309105C1F068F460
:103A20008130910509F445C0029761F48DE690E07C
:103A30002CED37E02D933C93089581329105E1F010
:103A4000829739F190E080E030E020E0F3CFC901C7
:103A50009927213059F08230910559F0E8EDF7E0CF
:103A6000892B81F7849190E09F01E4CFE0ECF7E0AF
:103A7000F9CFECEAF7E0F6CF643020F7E62FF0E07C
:103A8000EE0FFF1FEF5CFE4F2081318189E090E057
:103A9000D1CF6430B8F670E0FB01EE0FFF1FE75D99
:103AA000FE4F208131816B5D7E4FFB01808190E074
:103AB000C1CF82E190E029E438E0BCCF80E189BD4C
:103AC00082E189BD09B400FEFDCF8091D8008F7DD1
:103AD0008093D8008091E00082608093E000809124
:103AE000E00081FDFCCF0895AF92BF92CF92DF92AC
:103AF000FF920F931F93CF93DF936C01EB018A0129
:103B00000E94CB1EF82E811123C00115110539F03A
:103B1000F80180819181C81BD90BC80ED91EB12C28
:103B2000A12C2097A9F08091E80085FD22C080910A
:103B3000E8008E778093E80001151105A1F0F801E7
:103B400080819181A80EB91EB182A08285E0F82EF5
:103B50008F2DDF91CF911F910F91FF90DF90CF902C
:103B6000BF90AF9008950E94CB1E8823D1F2F82E0B
:103B7000EFCFF60181916F018093F1002197FFEF64
:103B8000AF1ABF0ACECFFC01CB0120913502309194
:103B900036022617370790F0009729F42091E800A5
:103BA0002E772093E80040E0009751F4411108C0BF
:103BB0008091E80082FF31C080E00895C901F3CF11
:103BC00020912E022223A9F12530A9F12091E800AD
:103BD00023FD2DC02091E80022FDEACF2091E800CE
:103BE00020FFE2CF3091F3002091F200009719F00E
:103BF0002830310558F041E02830310509F040E027
:103C00002091E8002E772093E800CECF4191409399
:103C1000F10001972F5F3F4FE9CF80912E0288235B
:103C200041F0853041F08091E80083FFC1CF81E011
:103C3000089582E0089583E00895FC01CB0120916E
:103C40003502309136022617370790F0009729F495
:103C50002091E8002E772093E80040E0009751F48F
:103C6000411108C08091E80082FF32C080E00895D1
:103C7000C901F3CF20912E022223B1F12530B1F1F9
:103C80002091E80023FD2EC02091E80022FDEACF1C
:103C90002091E80020FFE2CF3091F3002091F20064
:103CA000009719F02830310558F041E028303105EF
:103CB00009F040E02091E8002E772093E800CECF75
:103CC00044914093F100319601972F5F3F4FE8CF29
:103CD00080912E02882341F0853041F08091E800E8
:103CE00083FFC0CF81E0089582E0089583E00895C6
:103CF000982F973028F08F708093E90081E0089525
:103D00009093E900242F762F50E0981731F07091AE
:103D1000EC002091ED005091F00021FD02C09F5F6A
:103D2000E8CF3091EB003E7F3093EB003091ED0017
:103D30003D7F3093ED003091EB0031603093EB002C
:103D40007093EC002093ED005093F0002091EE0072
:103D500027FDE5CF80E0089580912F0287FF13C0F3
:103D60008091E80082FF06C08091E8008B77809305
:103D7000E80004C080912E028111F2CF0895809155
:103D80002E028823D9F38091E80080FFF8CF80913C
:103D9000E8008E77ECCF2091E4003091E50095E6C5
:103DA000A9012091EC00822F817020FF06C0809134
:103DB000E80080FF06C080E008952091E80022FD21
:103DC0001AC080912E02882389F0853089F0809175
:103DD000EB0085FD0FC02091E4003091E500421713
:103DE0005307F9F29150E1F684E0089582E00895D6
:103DF00083E0089581E008950E946A1F0E94721F67
:103E0000E0EEF0E0808181608083E8EDF0E0808189
:103E10008F77808319BCA7EDB0E08C918E7F8C9357
:103E200080818F7E808310922D0208950F931F93BF
:103E3000CF93DF930E946A1F0E94721FC8EDD0E0EB
:103E400088818F77888388818068888388818F7D47
:103E5000888319BC10922E0210922A0210922C0212
:103E600010922B0200EE10E0F80180818B7F80839E
:103E700088818160888342E060E080E00E94781E53
:103E8000E1EEF0E080818E7F8083E2EEF0E08081E1
:103E900081608083808188608083F80180818E7F4B
:103EA0008083888180618883DF91CF911F910F91FA
:103EB0000895E8EDF0E080818F7E8083E7EDF0E00B
:103EC00080818160808384E082BF81E080932D02C5
:103ED0000C94161FE8EDF0E080818E7F80831092B5
:103EE000E20008951092DA001092E10008951F9206
:103EF0000F920FB60F9211242F933F934F935F931E
:103F00006F937F938F939F93AF93BF93EF93FF93A1
:103F10008091E10082FF0BC08091E20082FF07C028
:103F20008091E1008B7F8093E1000E94D8218091F5
:103F3000DA0080FF19C08091D80080FF15C0809101
:103F4000DA008E7F8093DA008091D90080FF94C0E0
:103F500080E189BD82E189BD09B400FEFDCF81E029
:103F600080932E020E94F71B8091E10080FF19C010
:103F70008091E20080FF15C08091E2008E7F8093E7
:103F8000E2008091E20080618093E2008091D8009D
:103F900080628093D80019BC85E080932E020E9435
:103FA000091C8091E10084FF29C08091E20084FF18
:103FB00025C080E189BD82E189BD09B400FEFDCF45
:103FC0008091D8008F7D8093D8008091E1008F7E12
:103FD0008093E1008091E2008F7E8093E2008091E7
:103FE000E20081608093E20080912A02882309F434
:103FF00049C084E080932E020E940A1C8091E10057
:1040000083FF29C08091E20083FF25C08091E100F9
:10401000877F8093E10082E080932E0210922A0233
:104020008091E1008E7F8093E1008091E2008E7F9D
:104030008093E2008091E20080618093E20042E0A0
:1040400060E080E00E94781E8091F000886080939C
:10405000F0000E94081CFF91EF91BF91AF919F91DA
:104060008F917F916F915F914F913F912F910F9021
:104070000FBE0F901F90189519BC10922E020E942F
:10408000051C72CF8091E30087FD02C081E0B2CFB2
:1040900083E0B0CF1F920F920FB60F9211242F938F
:1040A0003F934F935F936F937F938F939F93AF93C0
:1040B000BF93CF93DF93EF93FF93D091E900DF702D
:1040C0008091EC00C82FC17080FDC0E81092E9001B
:1040D0008091F000877F8093F00078940E948E207A
:1040E0001092E9008091F00088608093F000CD2B61
:1040F000CF70C093E900FF91EF91DF91CF91BF9115
:10410000AF919F918F917F916F915F914F913F916F
:104110002F910F900FBE0F901F9018951F93CF9364
:10412000DF93CDB7DEB7AA970FB6F894DEBF0FBE08
:10413000CDBF8FE292E0FC0101962091F100208337
:1041400022E087339207B9F70E94201C8091E80093
:1041500083FF16C180912F02909130029A3008F0AF
:104160000FC1E92FF0E0E355FC4D0C943923803862
:1041700081F0823809F004C1809133028F708093FE
:10418000E9008091EB0085FB882780F91092E90017
:1041900006C080912B0290912C0291118260909127
:1041A000E800977F9093E8008093F1001092F1006F
:1041B0008091E8008E77E0C0882309F4CEC0823079
:1041C00009F0DEC0809131028111D1C080913302AB
:1041D0008F7009F4D5C08093E9002091EB0020FF97
:1041E000C6C0933031F48091EB0080628093EB0085
:1041F000BEC09091EB0090619093EB0021E030E025
:1042000001C0220F8A95EAF72093EA001092EA0093
:104210008091EB008860EACF8111B2C01091310229
:104220001F778091E3008078812B8093E300809159
:10423000E800877F8093E8000E94AC1E8091E80030
:1042400080FFFCCF8091E30080688093E30082E0F0
:10425000111183E080932E0293C08058823008F0C1
:104260008FC080913102909132028C3D23E0920701
:10427000A1F583E08A838AE289834FB7F894DE014F
:10428000139620E03EE051E2E32FF0E05093570018
:10429000E49120FF03C0E295EF703F5FEF708E2F37
:1042A00090E0EA30C0F0C7968D939D932F5F243144
:1042B00059F74FBF8091E800877F8093E8006AE25A
:1042C00070E0CE0101960E94C31D8091E8008B77BB
:1042D0008093E80055C0C096E7CFAE014F5F5F4FB7
:1042E000609133020E94081DBC01892B09F448C06B
:1042F0008091E800877F8093E80089819A810E94FD
:104300001D1EE3CF8038E1F58091E800877F809320
:10431000E80080912A028093F1004ACF811130C0D9
:1043200090913102923060F58091E800877F809310
:10433000E80090932A020E94AC1E80912A028823F2
:1043400011F084E005C08091E30087FDFACF81E0A1
:1043500080932E020E940C1C13C080913102813088
:1043600079F481E0933009F080E080932C02109280
:10437000E9008091E800877F8093E8000E94AC1EEE
:104380008091E80083FF0AC08091E800877F8093D6
:10439000E8008091EB0080628093EB00AA960FB654
:1043A000F894DEBF0FBECDBFDF91CF911F9108956E
:1043B0000895CF9380912E028823A1F0C091E90047
:1043C000CF709091EC00892F817090FD80E8C82B10
:1043D0001092E9008091E80083FD0E948E20CF704A
:1043E000C093E900CF9108950E94FB216894B11118
:1043F0000C948A2208950E946F2288F09F5798F0AB
:10440000B92F9927B751B0F0E1F0660F771F881FD9
:10441000991F1AF0BA95C9F714C0B13091F00E94F3
:104420008922B1E008950C948922672F782F88277C
:10443000B85F39F0B93FCCF3869577956795B3951A
:10444000D9F73EF490958095709561957F4F8F4F89
:104450009F4F0895E89409C097FB3EF4909580958E
:10446000709561957F4F8F4F9F4F9923A9F0F92F3A
:1044700096E9BB279395F695879577956795B795B8
:10448000F111F8CFFAF4BB0F11F460FF1BC06F5F9E
:104490007F4F8F4F9F4F16C0882311F096E911C0B0
:1044A000772321F09EE8872F762F05C0662371F0D1
:1044B00096E8862F70E060E02AF09A95660F771FE5
:1044C000881FDAF7880F9695879597F9089557FD15
:1044D0009058440F551F59F05F3F71F04795880F72
:1044E00097FB991F61F09F3F79F087950895121609
:1044F00013061406551FF2CF4695F1DF08C01616B5
:1045000017061806991FF1CF869571056105089465
:104510000895E894BB2766277727CB0197F908957C
:104520000E94A3220C9414230E94062338F00E94B8
:104530000D2320F0952311F00C94FD220C940323FD
:1045400011240C948A220E94672270F3959FC1F374
:10455000950F50E0551F629FF001729FBB27F00D31
:10456000B11D639FAA27F00DB11DAA1F649F662786
:10457000B00DA11D661F829F2227B00DA11D621FD5
:10458000739FB00DA11D621F839FA00D611D221F8F
:10459000749F3327A00D611D231F849F600D211D73
:1045A000822F762F6A2F11249F5750409AF0F1F0F6
:1045B00088234AF0EE0FFF1FBB1F661F771F881F5F
:1045C00091505040A9F79E3F510580F00C94FD2278
:1045D0000C948A225F3FE4F3983ED4F38695779556
:1045E0006795B795F795E7959F5FC1F7FE2B880F05
:1045F000911D9695879597F9089597F99F6780E89B
:1046000070E060E008959FEF80EC089500240A9424
:104610001616170618060906089500240A9412169D
:104620001306140605060895092E0394000C11F4D0
:10463000882352F0BB0F40F4BF2B11F460FF04C07D
:104640006F5F7F4F8F4F9F4F089597FB072E16F494
:10465000009407D077FD09D00E943F2307FC05D0C6
:104660003EF4909581959F4F0895709561957F4F89
:104670000895EE0FFF1F0590F491E02D0994AA1BF9
:10468000BB1B51E107C0AA1FBB1FA617B70710F03D
:10469000A61BB70B881F991F5A95A9F7809590956F
:1046A000BC01CD010895F999FECF92BD81BDF89A64
:1046B000992780B50895A8E1B0E042E050E00C945D
:1046C0007B23262FF999FECF92BD81BDF89A0197E1
:1046D00000B4021639F01FBA20BD0FB6F894FA9A4A
:1046E000F99A0FBE08950196272F0E9462230C9419
:1046F0006123DC01CB01FC01F999FECF06C0F2BDBC
:10470000E1BDF89A319600B40D9241505040B8F78F
:104710000895F894FFCFAE05BA05BE05C205C605DB
:10472000CA05CE05D205D605DA05DE05E205E605A1
:10473000EA05EE05F205F605FA05800C800CD80CAA
:10474000D80C1C0D380DB00CB00C430DB00C0B0E7A
:104750000B0E760EB00CB00C7F0EB720DC20C02103
:0E476000DC20C0210C212D21C02182218E21C0
:10476E00D4012808140A321E141BA41B811B4A1BD9
:10477E00171B01946697C63435F4F5F6F7313332CC
:10478E003693929190404D36391709CA0894085BBA
:0A479E0008EE07070820083908009C
:00000001FF
